:020000040800F2
:100000000000022005180008A5160008A91600081F
:10001000AD160008B1160008B51600080000000073
:10002000000000000000000000000000B9160008F9
:10003000BD16000800000000C1160008C516000823
:1000400055180008551800085518000855180008DC
:1000500055180008551800085518000855180008CC
:1000600055180008551800085518000855180008BC
:1000700055180008551800085518000855180008AC
:10008000551800085518000855180008551800089C
:10009000551800085518000855180008E116000802
:1000A000551800085518000855180008551800087C
:1000B000551800085518000855180008551800086C
:1000C000551800085518000855180008551800085C
:1000D000551800085518000855180008551800084C
:1000E000551800085518000855180008551800083C
:1000F000551800085518000855180008551800082C
:10010000551800085518000855180008551800081B
:10011000551800085518000855180008551800080B
:100120000117000855180008551800085518000850
:1001300055180008551800085518000855180008EB
:1001400055180008551800085518000855180008DB
:1001500055180008551800085518000855180008CB
:1001600055180008551800085518000855180008BB
:100170005518000855180008551800080000000020
:0801800055180008551800088D
:1001900010B5054C237833B9044B13B10448AFF3C1
:1001A00000800123237010BDA0000020000000008B
:1001B0001878000808B5034B1BB103490348AFF397
:1001C000008008BD00000000A4000020187800088E
:1001D000034613F8012B002AFBD1181A0138704787
:1001E00001F0FF01102A2BDB10F0070F08D010F8E8
:1001F000013B013A8B422DD010F0070F42B3F6D1EC
:10020000F0B441EA012141EA014122F007047FF004
:1002100000070023F0E80256083C85EA010586EA5B
:10022000010685FA47F5A3FA87F586FA47F6A5FA97
:1002300087F68EB9EED1F0BC01F0FF0102F00702A3
:1002400032B110F8013B013A83EA010313B1F8D14E
:100250000020704701387047002D06BF354603382F
:10026000073815F0010F07D1013015F4807F02BF68
:10027000013015F4C03F0130F0BC0138704700BFB9
:100280007BB972B90029BEBF00204FF0004106E0E3
:1002900008BF00281CBF6FF000414FF0FF3000F096
:1002A000BBB9ADF1080C6DE904CE002909DB002BC8
:1002B0001ADB00F035F8DDF804E0DDE9022304B0D4
:1002C0007047404261EB4101002B1BDB00F028F836
:1002D000DDF804E0DDE9022304B0404261EB4101B6
:1002E000524263EB43037047524263EB430300F017
:1002F00017F8DDF804E0DDE9022304B0404261EBC9
:1003000041017047524263EB430300F009F8DDF806
:1003100004E0DDE9022304B0524263EB430370477B
:100320002DE9F047089D8E4604468846002B4AD1A9
:100330008A42174662D9B2FA82F64EB1C6F120035C
:1003400001FA06F820FA03F3B74043EA0808B4407C
:100350004FEA174E1FFA87FCB8FBFEF1230C0EFB89
:10036000118843EA084301FB0CF29A4209D9FB18B1
:1003700001F1FF3080F0EA809A4240F2E7800239D2
:100380003B449A1AA3B2B2FBFEF00EFB102243EAE2
:10039000024300FB0CFC9C4509D9FB1800F1FF321D
:1003A00080F0D6809C4540F2D3803B44023840EA3E
:1003B0000140A3EB0C0300211DB1F3400022C5E96D
:1003C0000032BDE8F0878B4205D90DB1C5E90001C7
:1003D00000210846F5E7B3FA83F1002946D17345B9
:1003E00002D3824200F20581841A6EEB03020120DF
:1003F0009046002DE5D0C5E90048E2E7002A00F06C
:100400009080B2FA82F6002E40F0A4808A1A030C83
:100410004FEA174E80B2BCB20121B2FBFEFC0EFBCC
:100420001C2243EA024304FB0CF29A4207D9FB1850
:100430000CF1FF3802D29A4200F2E080C4469B1AC7
:10044000B3FBFEF20EFB123340EA034302FB04F45B
:100450009C4207D9FB1802F1FF3002D29C4200F205
:10046000CA8002461B1B42EA0C40A5E7C1F12006E8
:100470008B4022FA06F71F430EFA01F420FA06F326
:100480002EFA06FE4FEA1749234300FA01F81FFA35
:1004900087FCBEFBF9F01C0C09FB10EE44EA0E448D
:1004A00000FB0CFEA64502FA01F209D93C1900F145
:1004B000FF3A80F09C80A64540F2998002383C4487
:1004C000A4EB0E041FFA83FEB4FBF9F309FB1344FB
:1004D0004EEA044403FB0CFCA44508D93C1903F183
:1004E000FF3E80F08280A4457FD9023B3C4443EA32
:1004F0000040A4EB0C04A0FB02EC64457346E1460B
:1005000062D35FD05DB1B8EB030264EB090404FA77
:1005100006F622FA01F31E43CC40C5E9006400212F
:100520004FE7B1FBF2FC010C41EA0E4180B240EA18
:1005300001423B4638463C46B846BE462026B1FB03
:10054000F7F1A2EB080241EA0C4166E7014618E721
:1005500010462CE7C6F120022EFA02F3B740B14054
:1005600020FA02F24FEA174E0A43B3FBFEF8BCB280
:100570000EFB1833110C41EA034108FB04F9B040AB
:1005800089454FEA104380B23ED9791808F1FF3C03
:1005900001D289451FD8A1EB0901B1FBFEF909FB86
:1005A00004F80EFB191192B242EA0142424529D2E7
:1005B000BA1809F1FF31C4D24245C2D2A9F10201F1
:1005C0003A44BEE7F0459DD2BEEB02036CEB070C4C
:1005D0000138E14696E7A7EB09094944A8F1020C66
:1005E000B1FBFEF909FB04F8DBE773467FE75046F1
:1005F00066E70846FDE63B44023A33E7ACF1020CFD
:100600003B441CE749469CE7A1EB0901C446B1FB0A
:10061000FEF909FB04F8C4E7704700BF2DE9F04F6D
:1006200083B06FF01F05DDF830B001934FF0000C80
:100630004FF00108032702F1FF3A009218E0C36867
:100640000D9A334002FA04FE43EA0E03C360009B96
:1006500003FA04F403683340234303600CF1010CF4
:10066000BCF1100F05F1040534D031FA0CF331D090
:100670004FEA4C0408FA0CF307FA04F60B406FEA51
:100680000606EBD0BAF1010F0BFA04F9D7D8D0F86F
:1006900008E00EEA060E4EEA090EC0F808E0D0F8AF
:1006A00004E02EEA03034360009B022BC7D1BCF198
:1006B000070F12D8D0F82090019A4FEA8C0E0F2322
:1006C00003FA0EF329EA030302FA0EFE43EA0E03CD
:1006D0000362B4E703B0BDE8F08F436A019A4FF0BC
:1006E0000F0E0EFA05FE23EA0E0302FA05FE43EA98
:1006F0000E034362A3E700BFC0F10702031D042AF3
:1007000028BF0422062B4FF0FF3303FA02F38CBFFD
:100710000338002021EA030101FA00F0704700BF0E
:10072000034AD2F8883043F47003C2F88830704727
:1007300000ED00E02DE9F04F8046B3B0002004F05A
:1007400017FD012304466FF07F42002104F01AFDDB
:100750002046DB4A0123322104F014FD01236FF00F
:100760007F422046642104F00DFD0021204604F064
:100770003BFD002004F0FCFC01230646FF22002183
:1007800004F000FD01236FF07F423046642104F045
:10079000F9FC0021304604F027FD002004F0E8FCBD
:1007A00001230546FF22002104F0ECFC01234FF653
:1007B000FF722846642104F0E5FC002128460A95D2
:1007C00004F012FD002004F0D3FC002105461C902B
:1007D00004F00AFD284601234FF47F02002104F0B3
:1007E000D1FC284601234FF6FF72192104F0CAFC00
:1007F000284601236FF07F42282104F0C3FC2846DD
:1008000001234FF47F42322104F0BCFC2846AD4A5C
:1008100001233C2104F0B6FC2846AB4A01234B21BE
:1008200004F0B0FC0123FF222846642104F0AAFC56
:100830000321002004F0DAFCB8F80630013B0093F5
:10084000B8F804306FF07F49002282461146013B20
:10085000CDF80490002504F00FFD9C4B26935046E4
:1008600026A927958DF8A05004F000FD03215046DD
:1008700004F0BCFC0E27FF232A46CDE90073834613
:10088000C82329461D9004F0F7FC3146584604F071
:10089000EFFC0321504604F0A9FC3A466427C82324
:1008A000064600972946CDF8049004F0E5FC214661
:1008B000304604F0DDFC3046322104F0DBFC03213D
:1008C000504604F093FCD3460C234FF47F0ACDE945
:1008D000003A0222C423BC21012604F0CDFC7C4C4A
:1008E0000621584604F082FC7A4B00943246BC2123
:1008F000CDF80890019604F0DDFC0621584604F07E
:1009000075FC754B32468DE83002042104F0D2FCB0
:1009100006215846CDF824B004F068FCDFF8CCB1CD
:100920006E4BCDF800B0142204460821CDE90165D4
:1009300004F0C0FC20460A9904F09AFC099C0221AC
:10094000204604F053FCC8232A46CDE90075294609
:1009500004F092FC05212046099404F047FC46224D
:10096000044614231E21CDF80090119004F09AFC47
:100970005B4B299329A920462A958DF8AC5004F0A9
:1009800075FC304604F0F4FB334604464A462946DB
:1009900004F0F8FB39463346FF22204604F0F2FB10
:1009A000284604F0E5FB33464FF6FF7229460A90CD
:1009B00004F0E8FB5246334639460A9804F0E2FB5D
:1009C0005A210A9804F010FC284604F0D1FB334663
:1009D0004FF6FF7229460B9004F0D4FB5246334683
:1009E00039460B9804F0CEFB0721099804F0FEFB72
:1009F000CDE90357B8F80420B8F806301090143A3F
:100A00000092384A0692384A0292F3403222059206
:100A100003F11302019229462A4604F059FC109B67
:100A20005B684FF6FF7C986A2A46CDE9005C2B464E
:100A3000294604F021FC109B0A995B68986A04F02F
:100A400017FC109B1E495B682A46D86ACDE9005105
:100A50002B46294604F010FC109B5B682146186B5E
:100A600004F006FC0721099804F0C0FBCDE90477E7
:100A70001C4A06921C4A02920395B8F80630B8F850
:100A800004201B90013B0193531E0093143A2B4604
:100A9000314604F01DFC1B9B5B684FF6FF72986AA1
:100AA0002946CDE900522B462A4604F0E5FB1B9B64
:100AB0000B995B68986A04F0DBFB1B9B18E000BF96
:100AC000A9A9A90000A5FF0000FFFF00B42E01089E
:100AD0001C000020D8780008DC780008E4780008C2
:100AE000A42E0108D0790008D3D3D3001000002031
:100AF00070495B682A46D86ACDE900512B462946E1
:100B000004F0BAFB1B9B5B682146186B04F0B0FB3A
:100B1000694B09982C9303212D958DF8B85004F05A
:100B200065FB5A2304462A46CDF804A000932946C3
:100B30003C231E9004F0A0FB2046294604F09AFBBB
:100B400020462CA904F092FB5C4B93E807002FACE5
:100B500084E807000521099804F048FB1E233C2285
:100B60003946CDF800A0219004F09CFB2146219845
:100B700004F07CFB284604F0FBFA334604464A4660
:100B8000294604F0FFFA3346FF223946204604F096
:100B9000F9FA20462D2104F027FB099F062138464B
:100BA00004F024FBCDE9016ACDF800B0B8F80630B6
:100BB0001F90143B03EBD37343FA06F2B8F80430EA
:100BC000A83B03EBD37343FA06F1013A3C4B824650
:100BD000013904F06FFB2146504604F049FB062121
:100BE000384604F003FBCDE90169CDF800B0B8F850
:100BF00006302090143B03EBD37343FA06F2B8F8A7
:100C00000430603B03EBD37343FA06F113322D4BF0
:100C1000013904F04FFB294B8DF895500C3393E8C4
:100C20000300ADF89010090C23908DF8921038460F
:100C30000621ADF8935004F0D9FACDE900B5CDF80E
:100C40000890B8F8062023AB153A294604F032FB89
:100C50001D4B0F966FF001015D60CDE91861CDE984
:100C600014664FF0FF322F460B950A920D950E96A3
:100C70001692179614460C921A96B8F80490B8F883
:100C80000650124E09F1FF39013D00221FFA89F981
:100C9000ADB2009511464B4640463668D8F848B08C
:100CA000013500F0D5FF09F1010ACDE912740022E7
:100CB00019E000BFA9A9A900942E01083078000806
:100CC000F478000804790008001000E0C00000205B
:100CD00000F0D6FF854B1B68B34200F0ED801E4646
:100CE0002D1B3A4618D0082D2C46A8BF08241719EA
:100CF0007B1ECDE90036099800214B4604F020FB0D
:100D00003146404604FB0AF2BBF1000FE0D100F08F
:100D1000DBFF2D1B3A46E6D1DDE912741D9DDDE9AE
:100D20001412284604F076FB21460C9A109804F021
:100D300071FB6B681A689968002AB8F80420D8BF5C
:100D4000149402F1FF32D8BF644291425A68A4BFA2
:100D500014946442002A03DC0C9A159252420C92BD
:100D6000DA68B8F80630573B9A4203DB0C9B1593C0
:100D70005B420C931F9E4FF0FF320021304604F07F
:100D80000FFB209D4FF0FF320021284604F008FBA6
:100D90006B685A681E3207DAB8F80620716802F1EB
:100DA0001E00323248605A60119B17995A68936846
:100DB0000B4493600F3B0A2B84BF4B421793119B4C
:100DC0001A6953680A33B3F5B47F0ADD484981FBD9
:100DD00003101844D917C1EB20214FF4B47000FB65
:100DE00011335360109B18995A68D3690B44D3612F
:100DF000013B622B84BF4B4218931B9B19995A6885
:100E0000D3690B44D361013B622B88BF4B42169AD6
:100E100088BF1993309B0B991344364A309301FBDA
:100E200002F2B2F1333F59D9142B48D0143346D0D3
:100E30001E9DDDE90E12284604F0B2FA6B681A68AE
:100E4000002A04DBB8F804103B398A4202DB0E9A10
:100E500052420E925B68002B04DBB8F80620593A28
:100E6000934202DB0F9B5B420F930B9B224D01339E
:100E70000B930D9B6A6801330D93279B02332793D5
:100E80001E4B1B689A421FD21C9B9B685BB1DB68A0
:100E90004BB1DA683AB119780A98014419701346CF
:100EA000DA68002AF7D10137152F7FF4E6AE0A9BE6
:100EB0005B420A930027E0E6114B1E6810E71A9B7D
:100EC00016935B421A93B3E70D980A220DF1920133
:100ED00005F078FD00236B600D93D5E71A992198F2
:100EE000002204F05DFA309B9EE700BFC0000020A6
:100EF000B7600BB6CDCCCCCC001000E000000020D9
:100F0000BC0000202DE9F04FB34AB44B1168B4483F
:100F100041F4E061C7B01160596C41F480415964FB
:100F2000596C196C41F0805119641B6CC168AD4B50
:100F30004FF6FF0421400B43C360136823F00703FF
:100F400043F005031360136803F00703052BFAD180
:100F5000A549A24A0B6843F480430B60136843F42D
:100F60008033136013689903FCD513689F4943F4D9
:100F70000023136050689E4B01400B43536013687D
:100F8000964943F0807313600B689A01FCD5964A2A
:100F900053685B04FCD5914CA36823F47C4323F095
:100FA000F30343F4144343F00203A360A36803F084
:100FB0000C03082BFAD1DFF864A28E4ACAF800208D
:100FC0004FF0E023864F8C4A5A61F02287F82320A5
:100FD000002607229E611A61236BDFF8448243F0EA
:100FE000870302254FF001092363236B4A464FF420
:100FF00080514046CDE900593346FFF70FFBC8F852
:10100000181008F58060CDE900593346324620219A
:10101000FFF704FB794A7A4BD16821F0F001D160E7
:10102000D16841F02001D1605A6822F020025A6054
:101030001A6842F020021A60DA6842F02002DA6090
:10104000F8680421C0F30220FFF756FB0301404675
:10105000DFF8D081DBB288F817334FF40003C8F80B
:101060000030236C43F480432364236C236C2B43B4
:1010700023644FF00309236C019605232A464FF49D
:101080006041CDF80090FFF7C9FA5E4B1A6844F250
:10109000063122F040021A6019605A6822F01002EC
:1010A0005A60DA6922F40062DA61236C2B4323640C
:1010B000236C554B53229A621A6822F47C721A6090
:1010C0006322DA625A6942F001025A61DA6942F433
:1010D0000062DA611A6A22F480521A62DA6922F432
:1010E000EE4242F4C042DA611A6A22F400521A62F5
:1010F0001A6A42F400521A6231221A645A6822F0C3
:1011000070025A609A6822F080029A60236B2B4327
:1011100023632A46236B29462B46CDE90066FFF759
:101120007DFAA26B42F00102A263A26B226B42F035
:1011300018022263226B00F500600C232A464EF24F
:10114000B371CDE90096FFF769FA00F580600C23D2
:101150002A464FF68071CDE90096FFF75FFA4FF00F
:1011600020432A481A6822F001021A6045F2100250
:101170001A6040F60A225A604FF4807242601A6880
:1011800042F001021A60236B43F480032363236B54
:10119000F8682946C0F30220FFF7AEFA03011C4AA3
:1011A000DBB24FF0807188F83833C8F8041005239B
:1011B000184911615362D7F8FC3013F0807334D1B1
:1011C000D7F8FC10144A41F08071C7F8FC10536046
:1011D000136843F0010327E0003C0240003802405E
:1011E00000ED00E00003FA05007000400080BCFF45
:1011F000042A4000007A030A3F90020000380140B0
:10120000003C01400038004000040040000100A004
:1012100000640240902AA102001000E000000020BB
:101220000004024000E100E01360B24DDFF818B3A3
:101230000FCD1CAE0FC695E8030005F1080E86E839
:101240000300BEE80F000DF15C0CE046ACE80F00B7
:10125000B8E80F00DEF80050CCF8005009AF0FC717
:101260001CAB3D600893A44B0793A44B069300244A
:10127000A34B0593CDE90144A24B04934FF4F079BD
:10128000A14B0393CDF800904FF4A0731A46494642
:10129000DBF80000DFF87482DFF8A89200F0CCFBE6
:1012A0000746CBF8000000F0BFFC0121384600F0F3
:1012B00083FB9649384600F0C9FD954B0394CDE970
:1012C0000138944B00932246934B2146384601F057
:1012D0003DFA4FF4FA6000F00DFB022312931094D4
:1012E000139711948949DBF80000884C884D8B4E88
:1012F00000F0ACFD0023CDE902431A4601950096AB
:101300001146DBF80000864B01F020FA0023CDE9FE
:101310000243CDE90065834BDBF800001422002175
:1013200001F014FADBF80000836C428C018C002B76
:1013300000F083810023CDE90243CDE900657A4BBB
:1013400001F004FA4FF4FA6000F0D4FA0024032309
:10135000DBF800800F9326462546B8F80620B8F83B
:101360000430013A92B20092013B00229BB2114636
:10137000404600F06DFC0023C9F80430D9F8042081
:10138000DAF800309A424FF0000714D2310241EAF5
:1013900005412143404600F059FDD9F80420DAF810
:1013A00000300135023604349A42EDB2F6B2E4B2AE
:1013B00007F10107EAD30A2228A9384605F002FB03
:1013C00000230393524B0193544B00930022FF23BD
:1013D0000293114628AB404601F0B8F94FF47A70F9
:1013E00000F088FA0F9B013B0F93B6D1484E474D52
:1013F0004A4C0393CDE901651A46009411464B4BC4
:10140000DBF80000904601F0A1F9DBF80040DFF8BE
:1014100030C1A06C119B002808BF3B46109818BF34
:1014200038461F460CBF63460023A3640A2228A93E
:10143000109005F0C7FA0022CDE90252374C009413
:1014400001963B4BDBF800001422414601F07EF987
:10145000DBF800000024428C018C0196CDE9025497
:101460002E4C009428AB01F071F90A2228A93846C5
:10147000119705F0A7FA0022CDE90252CDE9004606
:101480002C4BDBF800002822414601F05FF9DBF825
:1014900000004FF0000C428C018C28ABCDE9025CBF
:1014A000CDE9004601F052F9109BC3B1119FB7B1CD
:1014B000BB424FF00003DBF80000039300F2C98049
:1014C000164B00936FF07F424FF47F03CDE901325A
:1014D0000F9934BF184B194B3C2201F037F940F6F5
:1014E000B83000F007FA129B012B2FD00123129382
:1014F000F8E600BF48780008ED270008E527000857
:10150000DD270008BD270008B5270008B19B310082
:1015100000FFFF00040000201079000810000020E8
:10152000207900083C790008487900085C790008B7
:101530007479000884790008A4790008B479000857
:1015400000640240001000E0CC000020DBF8003016
:10155000DFF83CE1454A9A64BEE80F00DFF834B199
:10156000139FDFF834A1DFF83491414E0DF1880C60
:10157000ACE80F009BE803000DF1540888E8030075
:10158000DEF800308CF800300A2500240122BB88E8
:101590007460CDE901A20022F98800913846114615
:1015A00001F06CF922A928A8D6F804B005F042FB96
:1015B0000A220146584605F005FA414628A805F0DA
:1015C0002AFB00224FF6FF73CDE90234114628AB07
:1015D0003846CDE9009401F0B9F84FF47A7000F084
:1015E00089F9013DD2D1234D0FCD22AC0FC495E82E
:1015F000030022AA84E80300142128A804F0A8FF0D
:10160000394628A803F096FF394628A804F0FAFBCB
:10161000394628A804F01CFDBC882401204605F0AA
:1016200093F8154ABB6C106023B1204605F08CF886
:10163000124B18603846FFF77DF8DFF864E003933B
:101640000F4BCDE9013E0F4B00930F4B01F07EF89D
:1016500078E600944FF47F036FF07F44CDE90134C6
:101660000F990A4B3C2201F071F838E70064024000
:10167000001000E074780008C0000020BC000020CA
:1016800000FFFF0010000020507900089479000846
:10169000C0790008D479000810D700081C00002089
:1016A000B19B3100FEE700BFFEE700BFFEE700BFD1
:1016B000FEE700BFFEE700BF704700BF704700BFF6
:1016C000704700BF08B5044B186804F0A3FF034A35
:1016D00013680133136008BDB02F0020C400002040
:1016E000054B5A69920600D47047044A20211068BD
:1016F000596104F065BF00BF003C0140B02F0020DD
:10170000104B114A1B683D219160D96EB1F5803FA5
:101710000DD34FF6FF715161DA6EA2F57F42FF3AA9
:10172000DA66094A136943F0010313617047D96E01
:1017300021B1D86E50610021D966F2E7012283F809
:1017400068207047CC0000200064024001207047F0
:1017500008B505F0CFFA162303604FF0FF3008BD3F
:1017600008B505F0C7FA16230360FEE770B5161E2C
:1017700007DD0C468D19AFF3008004F8010BA5427C
:10178000F9D1304670BD00BF70B5161E07DD0C469E
:101790008D1914F8010BAFF30080A542F9D1304642
:1017A00070BD00BF4FF0FF30704700BF4FF40053D3
:1017B0004B600020704700BF012070470020704739
:1017C0000C490D4A0B6810B50C4C121B2BB1184478
:1017D000904207D80860184610BD094B0B601844AA
:1017E0009042F7D905F086FA0C2303604FF0FF33DF
:1017F000184610BDC80000200000022000040000B0
:1018000000310020DFF834D00D480E490E4A002385
:1018100002E0D458C4500433C4188C42F9D30B4AA4
:101820000B4C002301E013600432A242FBD3FEF70D
:1018300077FF05F065FAFFF765FB704700000220AF
:1018400000000020A000002040660308A000002047
:1018500000310020FEE7000000B59942BDF904E028
:10186000844630D090421CD0AEEB010E591AA2EB48
:101870000C030EFB03F393FBF1F3039963441BB2D8
:1018800090420B80A8BF1046029983420B801CDB5C
:101890009445B8BF94466345CCBF002001205DF855
:1018A00004FB99420A46A8BF1A4672450DDC9942CC
:1018B000B8BF1946714508DB039B1880029B0120C5
:1018C000A3F800C0EBE7714502D000205DF804FBEF
:1018D000904202990346A8BF13460B808242039BA5
:1018E000B8BF02461A80049B049A1B780133022079
:1018F0001370D4E7421C4FF0E02318BF01301B697E
:101900004FF0E02228B11369DB03FCD50138002831
:10191000F9D1704790F86830002BFBD04B7811F864
:10192000022BFF2B24D010B54FF0E02E132B11D833
:10193000C46B2270D3B10B4411F801CB826B994276
:1019400082F800C0F8D119465B7811F8022BFF2B02
:10195000ECD110BD0133DBB2DEF8102033B1DEF87C
:101960001020D203FBD5013B002BF8D10B46EAE750
:10197000704700BF016CE9B110B4446C4FF0E02235
:1019800023048B613320136928B11369DB03FCD571
:1019900001380028F9D14FF0E0228C61332113691E
:1019A00029B11369DB03FCD501390029F9D15DF8B0
:1019B000044B7047704700BFF8B5466B5EB3C388F1
:1019C000828893420D46194638BF11469342044619
:1019D00028BF1346032D1ED8DFE805F01E021E02A5
:1019E000C78BB0F81CC00780A0F802C08180C380FC
:1019F000D0E90502012D0BBFACEB030C7F1AACEB59
:101A00000000BA1AC4E903202846B0470146204620
:101A1000FFF780FF2572F8BDC7698380C18007602A
:101A2000D0E90520002DEDD0C1EB1741BFB2FF1A60
:101A3000081ABA1AE6E700BF2DE9F84F05468846AE
:101A400001207821DDE90BBABDF8289016461F4623
:101A500004F044FE002800F09C80DDF848C00446F5
:101A600000F1380EBCE80F00AEE80F009CE8030060
:101A70008EE80300A36C002B2DD0E26C02EB420237
:101A800003EBC20303F110011A6922F001021A618B
:101A90000A68D207FCD41A6922F4F0421A611A6962
:101AA00042F420521A611A6922F400721A611A690A
:101AB00022F480621A611A6922F4802222F00E0256
:101AC0001A614A6922F080024A611A6942F01002E2
:101AD0001A61A36BCB6000231A4667F30F034645D8
:101AE00069F31F432360334628BF4346464538BF4A
:101AF000464663F30F0266F31F429F42C4F814B0D8
:101B0000C4F80CB0C4F818A0C4F810A0A783A4F8B7
:101B10001E9062603AD3B14538D30D9B002B35D06F
:101B20000E9B002B32D00D9B63620E9BA3620F9B1A
:101B3000E362109B23630DF14C0C119B6363BCE8C3
:101B40000F00002604F1500726720FC74FF0010E58
:101B5000DCF800303B604FF000084FF00009C4E9AA
:101B60001C8984F8646084F868E065B16A6F42B1EA
:101B700033461546526F0133DBB2002AF9D184F89F
:101B8000643025676C672046BDE8F88F204604F076
:101B9000E3FD00242046BDE8F88F00BFC0887047F1
:101BA0006429026D0B4628BF642380F86030FAB1C7
:101BB00030B4D56A1B4C416D05FB03F3A4FB034312
:101BC00001395B09032904D8DFE801F0021E23195B
:101BD00053631368DB0709D4106A890001238B4023
:101BE00003431362136843F00103136030BC704772
:101BF000836D1BB1C26D89B19A61704770471364E0
:101C00001368DB07F2D4E7E793631368DB07EDD4CF
:101C1000E2E7D3631368DB07E8D4DDE712049A61D7
:101C2000704700BF1F85EB5110B50446FFF7A2FEB9
:101C3000636A984701462046FFF76CFE217AFFF75A
:101C4000BBFE94F860102046BDE81040FFF7A8BF27
:101C500038B504468089BDF810C0A56A9646C218FA
:101C60000844218A01EB0C0371449BB289B292B201
:101C700080B2A84701462046BDE83840FFF74ABE7B
:101C8000FAB1836C9BB190F86830002BFBD00D4B00
:101C90004FF0000C80F868C0186940F400701861BB
:101CA0005A6199611A6942F001021A61704790F80D
:101CB0006830002BFBD0806B31F8023B0380013A87
:101CC000FAD170470064024090F86830002BFBD0D6
:101CD000806B22B131F8023B0380013AFAD17047A0
:101CE000F8B58C469C45BDF81810079E9E460446E4
:101CF00001D8E6469C468A4202D80B4611461A464F
:101D0000A38873454BD9E088884248D963459CBF76
:101D100003F1FF331FFA83FC9042238AA76A9CBF1A
:101D200000F1FF3082B2A089551A1A44194493B2C7
:101D30000CEB00027044ACEB0E0C92B289B2013590
:101D400080B20CFB0555B84701462046FFF7E2FD7F
:101D5000330A720902F4FC6203F478431343A26C61
:101D6000C6F3C4061E43F2B1124BA4F8666000210C
:101D700084F868101A69B5F5803F22F400721A6180
:101D80000ED3A5F57F454FF6FF72FF3D5A61E5661C
:101D9000084B66349C611A6942F001021A61F8BD71
:101DA0005D61E166F4E7A36B002DF8D0013D1E8074
:101DB000FCD1F8BD006402402DE9F8431D4683883C
:101DC000BDF82090099E9DF828808B4204460BD9CF
:101DD0000846E188914207D900EB050C9C4503DCDD
:101DE00002EB09038B4201DDBDE8F883218AB4F8D8
:101DF0000CC0A76A09F1FF3313440B4411446A1E57
:101E00000244624460449BB292B289B280B2B84745
:101E100001462046FFF77EFD09FB05F21346B8F1A7
:101E2000000F06D0A16C21B13146BDE8F843FFF7A1
:101E300027BF94F868100029FBD0A16B002AD3D0EB
:101E400036F8022B0A80013BFAD1CDE710B5C488E1
:101E50008388013C82B00022A4B2013BCDE900415D
:101E60009BB21146FFF73CFF02B010BD70B50446AF
:101E70008088884220DD1D46E38893421CDD51EABC
:101E8000020319D4E368A66A0B44216998B28B183F
:101E90009BB219460246B04701462046FFF73AFD7D
:101EA0002B0A6A0903F4784302F4FC621A43A16B1B
:101EB000C5F3C40313430B8070BD00BF2DE9F04F81
:101EC00085B09942BDF93870DDF83CA00E469C46BD
:101ED0008146154600F08C80BA424FD0A7EB020B2A
:101EE0005B1ABBF1000FB8BFCBF1000B002BB8BFE2
:101EF0005B429B4510463C466146324605DC39460E
:101F00002A4667463546A4460646BD4259DC891A2C
:101F10007A1BC2F3C03404FA82F481EAE1786645A0
:101F2000A8EBE17892B24FEA64045FDB4FF0FF3137
:101F3000CDE90212CDF804901FFA88F89946CB45F6
:101F40005346DCBF294653463246C4BF31462A4673
:101F50000198FFF78BFFA4EB08031CB20135002C9E
:101F60002DB29BB205DA039A13441CB2029B1E44A5
:101F700036B2BD42E3DD05B0BDE8F08F994201DD28
:101F800066468C46BCF1000FF5DBB9F80430B3426D
:101F9000F1DD002DEFDBB9F80630BB42EBDD27EABF
:101FA000E77226EAE671ADB21FFA8CF392B289B2FB
:101FB0004846CDF83CA00E9505B0BDE8F04FFFF7C0
:101FC0008FBEA2EB0108EA1BB8F1000FC2F3C034C8
:101FD00004FA82F42946B8BFC8F1000866453D46B8
:101FE00092B24FEA640466460F469FDD01219FE7E7
:101FF000BA42C7DC3B461D461746C3E72DE9F0430E
:1020000083B00446DDF82C80BDF928700092894623
:102010001E46CDF804801546FFF750FF33463A467A
:1020200049462046CDE90078FFF748FF4B46494630
:102030002A462046CDE90078FFF740FF33462A467E
:1020400031462046CDE90A7803B0BDE8F043FFF7FA
:1020500035BF00BF10B59942BDF908C0039C02DC32
:102060009E460B467146624502DCE6469446724641
:10207000002909DBB0F804E09E4505DD002A03DBFA
:10208000B0F806E0E64500DC10BD2CEAEC7E92B22A
:1020900023EAE37C029203948BB21FFA8EF21FFABA
:1020A0008CF1BDE81040FFF71BBE00BF2DE9F04FDB
:1020B00093B01646BDF97020BDF978E09642884687
:1020C0008446BDF974100FDD724540F3BD8074463F
:1020D000B6462646BCF806400846B442414680460D
:1020E0000CDC13B0BDE8F08F764500F39D8096457B
:1020F000C0F2A380BCF80640B442F2DD8B42184621
:10210000B8BF084600B24045ACBF4EEA00054EEAF3
:1021100008052804E5D48B421846A8BF084600B23B
:102120004045A8BF4046BCF8045000B28542D8DD07
:102130007445DDBF04F1FF3420B20A90CDF828E0E9
:102140000A9826EAE6752DB2A842CADDCDE90563F4
:10215000CDE907210DF1370A0DF13809CDF82CC072
:102160004746F3460DF13A03CDE901934FF00003E2
:1021700005998DF83730CDF80CA0DDE906230095E0
:102180003846FFF769FB041E18BF012409EB8406DB
:1021900009EB840802360990DDE907120698CDF8AC
:1021A0000CA000950296CDF804805B466400FFF712
:1021B00053FB00284FD0023463009A1C4A444B441E
:1021C000029201930898059BCDF80CA000953A4621
:1021D0005946FFF741FB00284ED00234BDF93810B4
:1021E000E4B20B4612A8A21E00EB440434F9120C10
:1021F0008342B8BF034612A800EB42001BB230F97D
:10220000100C8142A8BF014612F0FF04EAD11F9AC8
:102210000B98CDE900522A46FFF750FE0A9B013584
:102220002DB2AB429ED15CE734467646A646404688
:10223000964588460146BFF65DAF1446184672467D
:102240000B46A646014655E7344640461646984694
:10225000224603464BE7CDE90186059B0898CDF859
:102260000CA000953A465946FFF7F6FA0028B4D17B
:10227000099B002BD2D00224BDF93810B1E700BF72
:102280002DE9F04F87B09CB298460493C4EBC43359
:102290005B001BB2109F05931FFA82FBC4F1010380
:1022A00015461BB204EB0B0212B202933B460646E4
:1022B0008A46FFF7DBFDABEB0402514612B23B4608
:1022C00030461FFA8AFAFFF7D1FD04EB0A0109B282
:1022D0003B462A463046FFF7C9FDAAEB04013B46C0
:1022E0002A4609B23046FFF7C1FD4346002B76DD92
:1022F0000023009300E09CB2009A013293B212B224
:102300000092029A01930AEB03090FFA89F9002A55
:102310003B46494630461FFA82FC0EDB059A04F123
:10232000FF3E02321CFA82FC0FFA8EF512B21FFA3F
:102330008EF41FFA8CFC04950592019D0CEB450C64
:102340000CF1010C0BEB04020FFA8CF512B2CDE983
:102350000252FFF78BFD019D039AAAEB05080FFAC5
:1023600088F841463B463046FFF780FDABEB040260
:1023700012B249463B46304601920BEB0509FFF786
:1023800075FD41460AEB0408019A3B4630460FFAB8
:1023900088F80FFA89F9AAEB0404FFF767FD24B265
:1023A0003B464A4641463046ABEB0505FFF75EFD2E
:1023B0002DB23B464A4621463046FFF757FD3B4685
:1023C0002A4641463046FFF751FD3B462A46214604
:1023D0003046FFF74BFD049B009A93428BDC07B01D
:1023E000BDE8F08F2DE9F04F87B09CB21E460493F4
:1023F000109B0193C4EBC4335B001FFA81FA1BB23C
:102400000593AAEB040104EB0A0300921BB209B284
:1024100083469146FFF752FD002E5CDDC4F10105B5
:10242000109F2DB21FFA89F94FF0000800E09CB20E
:1024300008F101081FFA88F6AAEB06020AEB060368
:1024400011B21BB2002D0291039358460FFA88F87F
:102450001FFA85FC0BDB059A651E02321CFA82FC12
:10246000ACB212B22DB21FFA8CFC0495059209EBA6
:10247000040212B20CEB460C0CF1010CCDE9002762
:102480000FFA8CF5FFF71AFDA9EB040212B2DDE991
:102490000231CDE900275846FFF710FD0AEB040191
:1024A00006EB090212B2AAEB04030CB21BB2CDE98F
:1024B0000027214658460293FFF700FDA9EB0602CC
:1024C00012B2029BCDE9002721465846FFF7F6FCE1
:1024D000049B4345ABDC07B0BDE8F08F2DE9F04F1E
:1024E00085B00F46DDF838809DF844B098F80810A4
:1024F0009942824604D898F80900984280F0918069
:10250000002398F80000411E4FEAE10E0EF101068B
:10251000042E2ADC06FB03F498F80110D8F80430E6
:1025200001FB0439F300013B01259D40BBF1000F85
:102530007AD0D1B10026CC46DDF83C90CDF80CE045
:102540003346B646039E032E00F2FA80DFE806F01B
:1025500061533C16DDE901C2009B98F80110B646B4
:1025600001330132994292B2ECDC05B0BDE8F08F44
:10257000013301328B4292B2F7DAA4460CF1040423
:102580000028F5D0DCF800E0A446CDE901C2002423
:102590000FFA82FB0093764602E00134A042D9DDB7
:1025A00006FA04F32B42F8D0391950464B465A46E6
:1025B00009B2FFF75BFC98F80000EEE70133013247
:1025C0008B4292B2D1DAA4460CF103040028F5D074
:1025D0009CF802609CF80110360446EA01269CF83B
:1025E0000010A44646EA010ECFE7013301328B42C8
:1025F00092B2BADAA4460CF102040028F5D0BCF875
:1026000000E0A446C1E7013301328B4292B2ACDA5A
:10261000A4460CF101040028F5D09CF800E0A44683
:10262000B3E75B1ADBB26CE7BAF810E0BAF80C401B
:10263000531E73440B4402EB0E017A1E22440244E3
:1026400038199BB289B292B2DAF8284080B2A0471A
:1026500001465046FFF75EF998F801C0BCF1000F43
:1026600083D00F9A0F99384B98F80040C2F3074275
:10267000490903EA022201F4FC610A430F99C1F3FC
:10268000C40747EA020E109AC2F3074203EA022384
:10269000109A520902F4FC621343109A012EC2F3FD
:1026A000C40040EA03001BD109F10103002C40D013
:1026B00099F800109946DAF83870002301FA03F20D
:1026C0002A4203F101030CBF024672469C423A8043
:1026D000F4D10BF1010BDC453FF447AF012E0AD0DA
:1026E000022E0BD0032E0ED009EB0603D4B1D9F87D
:1026F00000109946DFE719F8011BDEE739F8021BE5
:10270000002CD8D131E709F103035CB199F802102C
:1027100099F80120090441EA022199F8002099461C
:102720001143C8E70BF1010BDC453FF41EAF99469E
:10273000D6E70BF1010BE3453FF417AF9946B3E73A
:1027400000287FF422AF0BE700F8FFFF2DE9F04FE0
:102750001F4685B01B780E9E9DF844A0DDE90F89C9
:1027600005460C469346F3B13178AA88214491423C
:10277000284609DD7278E98893441FFA8BFB5A4496
:102780008A424FF000040EDC2146CDE9029ACDE9E1
:1027900000685A46FFF7A2FE317817F8013F0C4453
:1027A000A4B2002BE1D12C84A5F822B005B0BDE87D
:1027B000F08F00BF0048704760D5000810B4064C89
:1027C00040BA52BA49BA5BBA6080A28020462181E1
:1027D00063815DF8044B704730000020004870476B
:1027E00058D500080048704750D5000803289CBF02
:1027F000034B1B5C034888BF00238370704700BFF6
:102800004CD500082800002030B5D0F8A450D4885A
:10281000B2F804C0108853886A890134A4EB0C0410
:102820006244B5F808C085B0A4B2013384441B1AD1
:102830006868CDE9004101249BB292B21FFA8CF185
:102840000294FFF7B9FA002005B030BD70B5D0F89A
:10285000A46033685D68AA4228BF2A46144629B19D
:102860000846196804F073FA33685D681A682D1B0E
:102870002244C3E90025204670BD00BF30B5B3B087
:10288000ADF81E209DF8E020BDF8D8400690012A42
:10289000ADF81C1002D0022033B030BD379A154974
:1028A000126803921D46379A05AB00935268049252
:1028B00003AA059242F6E0630F4A08A800F0C4F8A4
:1028C0000028E9D1BDF83CC0BDF83E104CFA00F23A
:1028D000AA4241FA00F301DCA34209DD01300328DA
:1028E000F4D10246054908A800F0F6FB33B030BD2C
:1028F000C2B2F7E74D280008D000002009280008E0
:102900002DE9F84F0646914696F80CA0376E006800
:10291000D6F804B00AF01F044FF0FF32A2401AF0BC
:10292000100A884627EA02071DD026E050B9D6F8DB
:1029300008B0D6F8A0504FF4806259463046A847F8
:1029400000287CD01BF8015B0138BAF1000F2BD0B6
:102950007DB386F864504FF0000AFF2508340F2C31
:1029600045EA072709D896F86420002ADED0FF251B
:1029700008340F2C45EA0727F5D9A4F10A03C6E964
:10298000000B376627FA03F306EB8802B9F1000F54
:1029900012D1526FD05CFF281BD0A4EB10143473FB
:1029A00000F00F00BDE8F88FFF2DD7D14FF0010ADE
:1029B000D9E7AA46FF25DBE7D26E32F813004FF6BF
:1029C000FF73984205D0A4EB10243473C0B2BDE865
:1029D000F88F09EB480306EB480806EB8303C8446D
:1029E000D3F820E098F865101A6B1B6C02EB4102DB
:1029F0000B440EF10A050EF11009A84615F8010B5B
:102A000028B94D45F9D16FF00500BDE8F88F04EB0A
:102A10000E0CACEB050C184427FA0CFC02E0013359
:102A20008342EED032F8021B6145F8D1CEF1010E9F
:102A3000F044A4EB080434731878BDE8F88F6FF005
:102A40000100BDE8F88F00BF2DE9F04F8DB00446BE
:102A500000900E4615461698A822002721461243DC
:102A600003D001F8017B013AFBD1734AC4F8A400FA
:102A70001278C4F8A060B3F5806FC4E9265384F8D7
:102A80009020C0F08880009AA3F58063C2F89C3043
:102A900005F58063C2F898309560002D7CD03C46E7
:102AA0004FF6D878914608E02B78D9F8A06043EA31
:102AB0000424A4B24445334622D001222946484684
:102AC000B047012807F10107EED002200DB0BDE8A4
:102AD000F08FDB2A64D0DD2A40F07281B9F5806F77
:102AE000F4D8009C4A46D4F8A0302046294698479E
:102AF0004845EAD12B885BBA6383009BD3F8A030AA
:102B000000980422294698470428DED16A882B8839
:102B100052BA92B25BBA022A9BB240F28A80190A78
:102B2000FF2940F08680911CA2F10209DAB2DA2A6C
:102B30000F4400F04F81CCDCA2F1C00398B21928F9
:102B400000F23E813D4C012383401C400CBB042815
:102B50007AD0DB0740F13481B9F5806F00F2A982A9
:102B6000009E4A46D6F8A030304629469847484548
:102B7000ABD1B5F803305BBAB383B5F801305BBABB
:102B8000F38332466E79D67406F0FD03012B00F014
:102B9000AA8108209AE7A76003200DB0BDE8F08F56
:102BA000B9F5806F92D800984A46D0F8A0302946EF
:102BB00082469847484588D1B9F1400F39D9DFF8A6
:102BC00084E005F1020818F8023C0F2B404630D88B
:102BD000DAF89C20FF2ADFD9DAF89860A2F5807233
:102BE000CAF89C2006F58072CAF89820002ED3D02F
:102BF00003F003031433124A4AF8236018F8013C27
:102C00005B03336002F13F0C12F8011F10F8013B27
:102C10003EF81140624504FB03F346F82130F3D13E
:102C2000B9F141093FF469AFB9F1400F08F141082A
:102C3000C9D806204AE700BF40000020EEEE00029F
:102C4000FCD500087CD50008B9F5806F3FF63EAF93
:102C500000984A46D0F8A0302946984748457FF466
:102C600034AFB9F1100FE4D9029508974B46099596
:102C7000029A127812F0EE04DBD10099D1F89C1080
:102C80000F2989D9009DD5F898001039C5F89C10F6
:102C900000F11001C5F8981000283FF47DAF11092C
:102CA00002F00F02079201EB420205EB820C029D3B
:102CB0000691421ECCF82000691C05F1110617464A
:102CC00011F8015B07F8015FB1422C44F8D1009F75
:102CD0006100D7F89C50033121F00301A9423FF66F
:102CE0005BAFD7F898B06D1A0BEB010A0195C7F8E6
:102CF0009C50C7F898A0BBF1000F3FF44DAFCDE951
:102D000003230025CCF830B000F10F0E17462946FA
:102D10006FF00049ABF1020805900A9417F8013FE3
:102D20005C1E8BB105EB09021D440BEB420208EB64
:102D300045000B4622F8023F013382429BB2F9D193
:102D4000013114FA81F189B24900774589B2E5D1A0
:102D5000DDE903230A9C0598A3F11107A742FFF4BC
:102D600068AF0199E31C23F003039942FFF414AF09
:102D7000009DC91A5344C5E92631CCF840A0002C67
:102D800000F09981029B04F111052B440AF1FF31F7
:102D9000069D9C4604E0664501F8013F00F0CA80AC
:102DA00016F8013B002DF6D1654606E0AE4201F86B
:102DB000013F00F0BF8016F8013B0B2BF6D938E736
:102DC00000984A46D0F8A0300021984748453FF483
:102DD00094AE7AE6B9F5806F3FF678AE009E4A462B
:102DE000D6F8A03030462946984748457FF46DAE66
:102DF000B38B002B3FF41DAFF38B002B3FF419AFC7
:102E0000F37C287898427FF4C4AE06F10F010023CA
:102E1000AC1C1EE014F8132012B1112A7FF4B9AED5
:102E20001A1E18BF012206EBC20C0432013356F8F9
:102E30003220002A3FF4FDAEDCF82420002A3FF4C3
:102E4000F8AE11F8012F143256F82220002A3FF470
:102E5000F0AE8342DED30099CB7B8A7B13FB02F377
:102E6000002B3FF4E6AEDB0103F14000D1F89C20DB
:102E7000B0F5807F38BF4FF48070B2EB400F4FEA5F
:102E80004001C0F01D81009ED6F89840C6F88C0025
:102E9000521A00202144C6E92000C6F89C20F4679D
:102EA000C6F89810C6F88800002C3FF475AE03F5FC
:102EB00080739A42C0F00181009CD21AC4F89C2011
:102EC0000B44C7F30902C4E925132046154432B167
:102ED000D4F8A030C2F58062294698472060009B54
:102EE00000205D60F2E5EA79009B112AAC4603F10F
:102EF0000F0104D0A2F1210001283FF64AAE009B49
:102F0000100902F00F02DA7398732A46634606E04E
:102F1000A6427FF6F2ADD87911287FF43AAE127A44
:102F200001F8012F032A03F1030304F101041A46F7
:102F3000EED92EE6009B0296D3F89C10069B002B40
:102F400000F09080B1F5006FFFF426AE009BA1F574
:102F50000061D3F898E0C3F89C1019460EF50063A1
:102F6000C1F89830BEF1000F3FF416AE079B01EB9D
:102F700083034FF0FF35C3F86CE071464FF40073E4
:102F80001B4303D041F8045B013BFBD14FF0000829
:102F900000F10903DDF818C0049300254FF0100973
:102FA0000A970B94CDF814B012F8014F002C44D0BE
:102FB000049B03929E1A05F10040059B013803EB28
:102FC0004000012303FA06F74FEA0913691E019333
:102FD0003346514466469C460EE0019B1A433B46ED
:102FE0001B4303D02BF8022B013BFBD1AAEB0103BF
:102FF000013B2B44E3421DD030F8023F11F8012F72
:1030000003FA0CF3C3F309030EEB430B4344002E06
:10301000E3D142EA0902BB465BEA0B0B04D003F89A
:10302000012BBBF1010BFAD1AAEB0103013B2B44AD
:10303000E342E1D1039AB446254409F11009B9F1FC
:10304000B00FB1D1079A009B03EB4203069ADDE96A
:103050000A74134483F865503B1B39D0102B3FF69C
:1030600007AEE6E5B1F5806FFFF496AD009BA1F5E4
:103070008061D3F89880C3F89C10194608F58063E6
:10308000C1F89830B8F1000F3FF486AD079B01EB13
:1030900083034FF0FF35C3F8748041464FF48073CB
:1030A0001B4303D041F8045B013BFBD1DDF818E082
:1030B0006EE704200AE5029640E7C6F894006BE547
:1030C000009A0023C2E92230C2E92033D36763E5C6
:1030D000DDE9087511E500BF2DE9F04F97B0032A2F
:1030E0000E9100F220861346817BC27B4373D6008B
:1030F000CB00C28B0D93002343610383002A00F0B1
:10310000118104460C931846A38B0B900890374608
:10311000A146002B00F00081002309930F97CB46B6
:10312000BBF81A2032B10B994B1C8A429BB200F0BB
:1031300049830B93DBE91F239BF80E009BF80F10CC
:1031400010FB01F1D418DBF894000391C1F10106E2
:103150004B1EA146029004933446049B039A2344D9
:103160009A4200F2E180002C00F00F839BF81330AC
:10317000032B00F0218320234FF08011029A1B4380
:1031800003D042F8041B013BFBD1029B0134803386
:10319000032C0293E1D19BF80FA09BF80E10099D20
:1031A000BBF81C30089E9BF80DC0009108224FEA26
:1031B000CA0712FB015411FB02F906970FFA8AF2B3
:1031C0000192069ADBF87C00DBF880109C42BBF889
:1031D0001E4002EB06078CBF5D1B4D46A7428ABF0F
:1031E0003746069CE41B35FA0CF5E646079500F0D9
:1031F000838034FA0CF40A947ED0099B23FA0CF3F2
:103200009BB2ADF85030013B2B44ADF85230089BD7
:1032100023FA0CF39BB2ADF85430013B2344BCF1CC
:10322000030F00EB0108ADF8563000F014839BF853
:103230009050012D40F29F83DBF89440069E474654
:10324000002304EB0312102E02D1082B28BF80327A
:103250000021B9F1100F02D1082908BF703232F9EC
:10326000020B022D04D180F3080007F8010B07E0E0
:10327000A0F3C50040EA801040EAC02027F8020B06
:1032800001314945E5D30133B342DAD3BCF1000F34
:1032900040F01785079929FA0EF399421FD29BF83F
:1032A0009020D00740F1B5820A9A012A4FEA4303E1
:1032B0004FEA410C13D047464646012566441F4459
:1032C000079C32463946244305D031F8020B22F8D8
:1032D000020B013CF9D10A9A0135AA42EED10E9BAC
:1032E00014AA41465846984710F0FF0340F0558213
:1032F000DBF88010BBF81C3009980D9CDBF88C20A3
:103300002044521A98420990CBF88020FFF408AF6D
:103310000F9FBBF81E20D946089939448A4208916C
:103320003FF6F7AE00200DE24FF0000847460022BE
:1033300041465846FFF7E4FAB0F1000AC0F2EC84C7
:103340000BEB470EBEF914C040F096810BEB070360
:1033500000211B7C14335BF823A0DAF800204B46D5
:1033600002FB0CF2121243F8042B3F22124303D04B
:1033700043F8041B013AFBD10126CDE90574CDF8D1
:10338000049005E0B9F13F0F09F1010600F08380D8
:10339000012241465846FFF7B3FA051E00F0D581D9
:1033A000C0F2F68106EB1519B9F13F0F00F2C981A1
:1033B00015F00F05E6D09BF80C40DBF8606004F0D8
:1033C0001F044FF0FF32A240A542DBE9000126EACC
:1033D000020640F2E6810027CDF800801CE008BB21
:1033E000DBF80880DBF8A0304FF480624146584695
:1033F0009847002800F0B3844146013811F8012BAA
:103400001346BFB10AB18BF864200027FF230834AC
:10341000A54243EA062613D99BF86430002BDED080
:10342000FF23F4E788464146013811F8012B134683
:10343000002FE7D1FF2AEAD1A5424FF00107EBD8D0
:10344000641B8BF80C4004F01F0426FA04F2002AD7
:10345000CBE90001DDF80080CBF860601046C0F2D7
:103460007884013D0121A940114203D14900C1F1F5
:1034700001018818D24B13F80910019B5AF821203A
:1034800000FB02F21212B9F13F0F43F8212009F1BB
:1034900001067FF47DAF9BF89030DDF80490023B8D
:1034A000012BDDE9057440F203849BF80D30032BFA
:1034B00000F0588109F1200300934FF4B55E4B46AC
:1034C000A446D3F8E0501C6A186ED3F8A020611B04
:1034D000161A42F6CF17024407FB06F8881941F680
:1034E000905606FB00F041F2511605EB040A06FB6C
:1034F00001F11C6CD3F8C0501F684FEA283809133B
:103500000AEB0206C8EB2038C1EB2031AAEB02021D
:10351000D3F88000A4EB050A0EFB0AFA2544A8EBB9
:103520000608C5EB2A3A3C180EFB02F2381AC8EB23
:1035300022326719641B00EB0A05891AA0EB0A0006
:1035400007EB060ABF1B05EB0806A5EB0805C3F849
:10355000C0508518801A62181A66641A009AC3F857
:1035600000A0C3F8E0701E621D64C3F8A000C3F899
:10357000804004339342A4D1029A02F110069032A3
:103580000192E04653F81C0C53F80C5C53F8144CB1
:1035900053F8042C53F8087C811A05EB040C024400
:1035A000281B42F6CF1501EB000E05FB00F041F69B
:1035B000905505FB0EFE41F2511505FB01F553F840
:1035C000201C53F8184C01F5004A001353F8101C46
:1035D00000912D134FF4B551C0EB2E30C5EB2E35B5
:1035E00002EB0C0EA2EB0C02A4EB070C01FB02F2A7
:1035F00001FB0CFC009927440AEB0104C7EB2C3CAF
:10360000AAEB010104EB070AE41B01EB0C07A1EB99
:103610000C010AEB0E0C4FEA2C2CAAEB0E0AA0EBC5
:103620000E0026F810CC4FEA2A2CC0EB223226F8E6
:1036300002CC07EB000C381A001226F8040C88188C
:10364000AD1A891A021226F80C2C0A1226F8062C3A
:1036500062191212641B26F80A2C221226F8082C72
:103660004FEA2C27019A26F80E7C1036964203F179
:10367000200387D1444688E59BF80C50DBF8606056
:1036800005F01F054FF0FF33AB40AA45DBE9000111
:1036900026EA030640F24B830023CDF804900597F9
:1036A00006946746F1461C461BE060B9DBF808103B
:1036B000DBF8A03000914FF480625846984700999B
:1036C000002800F04C8311F8013B01387CB10BB1AC
:1036D0008BF864300024FF230835554543EA06265D
:1036E0000BD29BF86430002BDFD0FF23F4E7FF2BD5
:1036F000F2D155454FF00104F3D3A5EB0A058BF841
:103700000C5005F01F0526FA05F3002BCBE900014C
:10371000BC46CE46059FDDF80490069CCBF8606061
:103720001946C0F210830AF1FF30012282401A428A
:1037300003D15200C2F10102D1188C44AEF814C07A
:1037400004E6062017B0BDE8F08F9BF89030DDF856
:103750000490023B012BDDE9057440F2AE82012E9C
:103760007FF4A3AED9F800300299002BB8BFFF3325
:103770001B1280331AB242EA034220231B4303D0B8
:1037800041F8042B013BFBD1FFE4A0462746CEE5E0
:103790006D42EBB2002B3FF4FEAC184617B0BDE80B
:1037A000F08F641B8BF80C4004F01F0426FA04F21F
:1037B000CBF86060104654E627464FF00108B6E5A6
:1037C000FCD500089BF86440DBF80460DBF80010CF
:1037D000002C00F08182002344F47F448BF8643095
:1037E00024F027039BB24FF6D0729342A9D10C9AD2
:1037F00084EA020313F00703A3D1013292B28BF8DB
:103800000C30CBF81430ABF8183001230C920B932A
:1038100090E42AB9079A02EB4202079203EB4303B2
:103820000A9A012A3FF45BADDDF81CC047464646C4
:10383000012566441F44324639466446244305D078
:1038400011F8010B02F8010B013CF9D10A9A01357C
:10385000AA42EED143E5069ADBF8943002FB09F167
:1038600003EB410233F91110B2F980208039803A1C
:1038700001910292BAF1000F3FF40CAD009AC646D6
:103880001546002A43D000250395029E019D8033F2
:10389000002210E001294FD002294AD0A4F3C5002C
:1038A00040EA801141EAC0212EF8021B08329145FE
:1038B00003F180032AD99BF8901033F9804C00293A
:1038C000E8D12D2000FB06F004EB601080F3080A1D
:1038D000172000FB06F10B2000FB0510A4EB601085
:1038E00080F3080C712000FB05F004EBA01080F3BE
:1038F0000807083291458EF800A08EF801C08EF8B6
:10390000027003F180030EF1030ED4D8039D069BD1
:103910000835AB420AD9082DDBF8943028D0009A3C
:10392000002AB1D1069B0835AB42FBD89BF80DE0CD
:10393000B0E40EF8014BB9E7A101712000FB0510BE
:10394000A0F345244FEA61012D2000FB0610A0F3EF
:10395000052044EAC024172000FB16110B2000FBB1
:103960001510A0F3052044EA80142EF8024B9DE7C1
:1039700003F58073D3E7BAF1000F00F0AD80019B2F
:10398000009EDBF89420CDE90189DC00F10055466A
:10399000F301009147464FF0000EA2461046022D5B
:1039A000804678D000EB030C08EB0E18002E67D091
:1039B000CDE903354FF00009CDF814E0CDF840A073
:1039C00023E02D2000FB02F003EB601080F3080AD7
:1039D000172000FB02F10B2000FB0410A3EB60108A
:1039E00080F3080E712000FB04F003EBA01080F3BD
:1039F0000805009B87F800A009F101094B4587F8ED
:103A000001E0BD7007F1030734D0BCF90040BCF9F8
:103A10008020022EA4F18004A2F1800248D0434607
:103A20000CF1020C9BF89010B3F9003008F1020879
:103A30000029C6D09B01712000FB0430A0F3452172
:103A40004FEA63032D2000FB0230A0F3052041EA7A
:103A5000C021172000FB12330B2000FB1430A0F311
:103A6000052041EA8011009B27F8021B09F101099A
:103A70004B45CAD1DDE90335DDF814E0DDF840A09F
:103A80000EF1010ED64503F110031CD0DBF89400B3
:103A9000022D804686D14FEA5E0C0CF1200CBEF15F
:103AA000070F00EB0C1C40F2FA8000F180087BE766
:103AB000B9F1080F09F0010308BF08F170080CEB19
:103AC000430C4346AEE79BF80DC0DDF80480DDF8FB
:103AD00008900096AA46E646BCF1000F3FF4DAAB28
:103AE00001219BF8905001FA0CF14FEA4C07A9EB29
:103AF000010E0323002D40F0EB8003FB0EFEBAF114
:103B0000000F00F08480009C03FB01F3039303FB90
:103B100009F042460023002C75D006465846C2469E
:103B2000BB46CDF840804F468146CDE911239446EF
:103B30004B464FF00008B94613961F4663460029CE
:103B40003ED00020CDE9049B044602460646C3460B
:103B5000002D5FD1A84600955D7801959D7802956E
:103B6000019D93F8009008F101082C44029D414505
:103B700003F103034A442844EED1009D01368E42EE
:103B80007344E5D1D846DDF814B0DDF8109022FA80
:103B90000BF2D5B924FA0BF420FA0BF08AF80020C6
:103BA0008AF801408AF802000AF1030A039B88445C
:103BB000C1459C4419D997F8905063460029C0D15B
:103BC0000A4608460C46002DE4D0012D50D0022DA7
:103BD00059D092B2930143EAC2231A438844039B0B
:103BE0002AF8022BC1459C44E5D8DDE9112338466B
:103BF0004F4681460698139E0B449842324445D95D
:103C000099F8905091E7069A0B449A42FBD8E64601
:103C1000FFF740BB012D4FF000080CD0022D1DD046
:103C200033F8029B08F1010809F01F0941454A4495
:103C3000A4D0012DF2D1CDF800E033F802EB08F169
:103C40000108CEF3841902EBDE2241450EF01F0E6F
:103C50004C447044F1D1DDF800E08FE793F8009018
:103C600008F10108414503F101034A44F6D185E713
:103C700020FA0BF040EAC22024FA0BF440EA841048
:103C80002AF8020B92E70AF8012B8FE7CB46DDF802
:103C900040809BF80DC0B946E646FFF7FBBA00EB43
:103CA0000E18002E7FF484AE0EF1010E103376E66E
:103CB000002F3FF4FAABFFF768BA002F7FF465AA34
:103CC0004DE5012101FA0CF14FEA4C07A9EB010E79
:103CD00005F00103013310E702254FF480625846D6
:103CE00039B9DBF80860DBF8A03031469847014667
:103CF000A8B316F8013B012D43EA042401F1FF317A
:103D0000A4B206D001254FF4806258460029F0D1B4
:103D1000E7E7CBE9001663E5CAF10003DBB2002B4D
:103D20003FF439AA39E5052017B0BDE8F08FA5EBBF
:103D30000A058BF80C5005F01F0526FA05F3CBF8A1
:103D400060601946EFE45B42DBB2002B3FF423AA2C
:103D500023E55342DBB2002B3FF41DAA1DE50220F0
:103D6000F0E400BF30B49942029D04462CD090424A
:103D700019D06D1A591A131B05FB03F393FBF1F3CA
:103D80000499234490420B60A8BF104603998342D4
:103D90000B601BDBA242B8BF22469342CCBF00207F
:103DA000012030BC704799420A46A8BF1A46AA4271
:103DB0000CDC9942B8BF1946A94207DB049B186086
:103DC000039B01201C60ECE7A94202D0002030BC1C
:103DD0007047904203990346A8BF13460B60824286
:103DE000049BB8BF02461A60059B059A1B780133F5
:103DF00002201370D5E700BF10B4019C0020207092
:103E00005DF8044B187010700870704700B50078AA
:103E10004FF0FF0E4FEAC00C81F800E02CF01F0CB1
:103E200020F01F01117083F800C0019B8001187001
:103E30005DF804FB008810B54FEAD00C4FEA102E55
:103E40002EF0070E2CF0030CFF240C7082F800E01B
:103E500083F800C0029BC000187010BD00884FEAB4
:103E6000102C2CF00F0C81F800C0010921F00F017B
:103E7000117000F0F0021A70009B0001187070477A
:103E80004FF0FF0C81F800C00178117042781A7071
:103E9000009A83781370704700684FEA106C81F8BD
:103EA00000C0010C1170020A1A70009B1870704754
:103EB0002DE9F04F9E4695B00369DDF878B090F893
:103EC00008A0CDE90F12002281468DF84C20002B6E
:103ED00000F09980D3F80080B8F1000F00F08B80DB
:103EE0001A7AD8F80810D3F804C0219BD8F80440F7
:103EF000069195070846AEEB03037FD4069901FBB4
:103F000003F3239993FBF1F6100702D5069B9B1B45
:103F10005E1E98F80C30042B00F2B781A049C95CF2
:103F20000591A04951F823300493BCF1000F00F033
:103F3000B4818CEAEC73A3EBEC73B3F5B47F00F3BC
:103F400069826346002BB8BF03F5B4735A2B40F364
:103F5000B282A3F15B01592940F2AB82A3F1B50112
:103F6000592940F20684904DC3F5B47335F81330E7
:103F70005B4208930CF15A0383EAE371A1EBE3710E
:103F8000B1F5B47F0ADD894981FB03101844D917C4
:103F9000C1EB20214FF4B47000FB1133002BB8BFEC
:103FA00003F5B4735A2B40F38D82A3F15B015929B9
:103FB00040F28682A3F1B50159298ABFC3F5B473D3
:103FC00035F8113035F813305B420993069B089998
:103FD000A6EB630301FB03F10B91099901FB03F3CA
:103FE0000A935EE1DDF81CA0DDF844E0DDF878B06E
:103FF000D9F80C0058B915B0BDE8F08F93FBF1F17A
:1040000000FB113680E7C068002800F05C838468FC
:104010000A9494F800806368059341462246E46858
:10402000002CFBD103781578526806950992002B75
:1040300000F0C280239A229902FB02F201FB0122C6
:1040400007EE902AF8EEE77AF1EEE76AFDEEE66A0F
:10405000A44616EE902A521006EE902A1F9A934517
:10406000C9DC2299209A239DDFED515A02EB6102AF
:1040700021990892AEEB0101A1EB6501109DA2EB25
:104080000B0204FB02CCABEB05076FF063020F9D44
:1040900002FB04F401FB01F16422CDE903A005EB6E
:1040A0004707079102FB0CFC00260AF1010EA1460E
:1040B000002B43D116EE903A9CFBF3F3C3F132038D
:1040C000434553DD069A934252DB099E03983A8892
:1040D000C6F30743C6F30721F5B2C8B1100A00F0D2
:1040E000F800181A0EFB00F0A3EB2020C3B2D00892
:1040F000D20000F0FC00D2B2081AAA1A0EFB00F09F
:104100000EFB02F2A1EB2020A5EB2222C1B2D5B218
:10411000284AC90002EA032301F4FC610B4343EA85
:10412000D50327F8023B1F9B0BF1010B5B45CC44E9
:10413000FFF661AF049B1B78002BBBD0089B079A4E
:10414000ABEB030303FB032307EE903AF8EEE77AA9
:10415000B1EEE77A67EE257AB8EEE66A87EE867A00
:10416000FDEEC77A17EE903A4345ABDC059EADE70E
:104170000A9DEA682978002AA8D0DDE9034A00E010
:10418000024608468342117802DB8B4240F35B8192
:10419000D06815460028F3D1CDE9034A96E700BF61
:1041A00050D600083CD6000858D60008B7600BB6B9
:1041B0000000C84200F8FFFF4268002A00F09A8120
:1041C0005A2A00F0138282EAE271A1EBE271B1F5A2
:1041D000B47F00F32C8111460029B8BF01F5B471FA
:1041E0005A2940F37581A1F15B04592C40F26E818C
:1041F000A1F1B504592C40F2C382BA4DC1F5B47196
:1042000035F8114064425A3282EAE271A1EBE27160
:10421000B1F5B47F0ADDB44981FB02161644D1170B
:10422000C1EB26214FF4B47606FB1122002AB8BF59
:1042300002F5B4725A2A40F35181A2F15B01592967
:1042400040F24A81A2F1B50159298ABFC2F5B47280
:1042500035F8115035F812506D42229A239904FB1B
:1042600002F2002A05FB01F1B8BF52420029B8BF93
:1042700049420A4406EE902A219AAEEB020C239A98
:10428000ACEB620C05FB0CFCE8E6984B04930023B6
:104290000593BCF1000F7FF44CAECDE90ACCCDE91B
:1042A00008CC1F9B9B453FF7A3AE04FB06F30E9380
:1042B000109BCDF81CA0ABEB03050F9BCDF878B09D
:1042C00003EB4505209BCDF844E0ABEB03076310FF
:1042D0000C93069B5B1004FB07F70D930AF1010397
:1042E0000BF101060397E3469A4685E0209BF31AFB
:1042F000013B93FBF4F104FB1133520748BFE31A6F
:10430000D8F8000048BF03F1FF33BBF1000F7BD0AA
:104310000C99089F0A9A5B1A07FB0322099F07FB67
:1043200003F30D9F07EBE2320B9FDB1B01EBE33343
:10433000069922EAE27223EAE3738A42A8BF01F1F6
:10434000FF32A342A8BF04F1FF3304FB0233059AF6
:1043500002FB03000DF14F03009300238DF84D3055
:104360008DF84E308DF84F30049F0DF14E030DF156
:104370004D0213A9B8479DF84C3083B3079F288896
:104380009DF84D309DF84E209DF84F10EFB14FEA4B
:10439000102C0CF0F80CA3EB0C0C0AFB0CFCA3EBA0
:1043A0002C234FEAD00CC0000CF0FC0CC0B2A2EBE6
:1043B0000C0C081A0AFB0CFC0AFB00F0A2EB2C22E6
:1043C000A1EB2020DBB2D2B2C1B24948D20000EA50
:1043D000032302F4FC62134343EAD1032B80039BC3
:1043E000234403931F9BB34205F10205FFF6FAAD88
:1043F000D9F810301A7A0136D1073FF577AF229BF2
:10440000039991FBF3F378E70E9A1344059A02FBA4
:1044100003009FE7344B83FB0C3161444FEAEC739C
:10442000C3EB21234FF4B47101FB13C38AE52E497A
:1044300081FB02141444D117C1EB24214FF4B4744E
:1044400004FB1121C8E62E7ACDE9034A34466E6892
:10445000002C3FF43BAE88423FF438AE1B1A091AD9
:10446000C3EB0323B3FBF1F55368EDB28DF84C5069
:104470001C4601355FFAA6F05FFAA4F1411A05FB6C
:1044800001F1A0EB21205FFA96F15FFA94F28A1A0B
:1044900005FB02F2A1EB2221F2B2E3B2D31A05FB33
:1044A00003F3A2EB232242EA012242EA004A5646E3
:1044B0000CE6C3F1B4030B4D35F81330089359E5FE
:1044C000C3F1B40335F8133009937FE5C1F1B401AA
:1044D000044D35F8114096E6C2F1B40235F8125099
:1044E000BBE600BF58D60008B7600BB6F93D000820
:1044F00000F8FFFF219B6422AEEB030302FB03F3F2
:10450000239A93FBF2F3C3F16403DBB2984519D20B
:104510009D4240F22B81A84500F028810A9AD2687A
:10452000002A00F09A810A9C00E002460846984260
:10453000117802DC994280F05D81D0681446002831
:10454000F3D105901F9B9B453FF755AD109B0F99ED
:10455000C34EABEB03028D1C01EB42021F9905EB2E
:104560004105A5EB4305059BAC460AF10104C3F3E5
:104570000740C3F30721DFB255462FE04FEA182E5C
:104580004FEAD8034FEAC8080EF0F80E03F0FC0318
:104590005FFA88F8A0EB0E0ECB1AA7EB080804FB15
:1045A0000EFE04FB03F304FB08F8A0EB2E2EA1EB98
:1045B0002323A7EB28285FFA8EFEDBB25FFA88F888
:1045C000DB0003F4FC6306EA0E2E43EA0E0343EA23
:1045D000D803944522F8023C3FF40DAD32F8028B2B
:1045E000002DCBD1B8460B468646E9E71F9B9B457D
:1045F0003FF701AD209BDDF87CC0ABEB0306109BC1
:10460000ABEB03070F9B03EB4707642303FB06F6A3
:104610000AF1010E039639E0069A93423FDB099CAA
:104620003988C4F30743C4F30722E5B2BAF1000F97
:1046300019D0080A00F0F800181A0EFB00F0A3EBDE
:104640002020C3B2C808C90000F0FC00C9B2101A8B
:10465000691A0EFB00F00EFB01F1A2EB2020A5EB86
:104660002121C2B2CDB27E49D20001EA032302F475
:10467000FC62134343EAD50327F8023B039B0BF18B
:10468000010B6433DC450393FFF6B5AC229B039A20
:1046900092FBF3F3DBB24345BEDC059CC0E70A9D09
:1046A000EA682978002ABBD0039E00E0024608464B
:1046B0008342117801DB8B4267DDD0681546002804
:1046C000F4D10396ACE71F9B9B453FF794AC109B3E
:1046D000634EABEB03028F1C01EB42021F9907EB09
:1046E0004107A7EB4307249BBC460AF10105C3F32E
:1046F0000744C3F30720D9B257462FE04FEA182EDC
:104700004FEAD8034FEAC8080EF0F80E03F0FC0396
:104710005FFA88F8A4EB0E0EC31AA1EB080805FB9C
:104720000EFE05FB03F305FB08F8A4EB2E2EA0EB11
:104730002323A1EB28285FFA8EFEDBB25FFA88F80C
:10474000DB0003F4FC6306EA0E2E43EA0E0343EAA1
:10475000D803944522F8023C3FF44DAC32F8028B6A
:10476000002FCBD188460346A646E9E7099B05936F
:10477000E8E63C4D35F811305B420893FFF7FABB91
:10478000384D35F8144064423DE52C7A03962646B0
:104790006C68002E3FF444AF81423FF441AF1B1AD6
:1047A000091AC3EB0323B3FBF1F55368EDB28DF89F
:1047B0004C501E4601355FFAA4F05FFAA6F1411A8B
:1047C00005FB01F1A0EB21205FFA94F15FFA96F26C
:1047D0008A1A05FB02F2A1EB2221E2B2F3B2D31A4C
:1047E00005FB03F3A2EB232242EA012242EA00493D
:1047F0004C4615E72546247A6D680595002C3FF454
:10480000A1AE88423FF49EAE1B1A091AC3EB0323E4
:1048100093FBF1F4E4B2566801342F465FFAA7F037
:104820005FFAA6F1411A04FB01F1A0EB21205FFA27
:1048300097F15FFA96F28A1A04FB02F2A1EB2221A9
:10484000FAB2F3B2D31A04FB03F3A2EB232242EA37
:10485000012242EA0045059574E6059472E600BF20
:1048600000F8FFFF58D600082DE9F04F07789DB0FB
:1048700004468B4616461D46072F00F28780DFE868
:1048800017F0DC00DC009F019F0188008800EA012E
:1048900008004368002B79D05A682699914275DB4D
:1048A000D9682698884271DC9F68BE426EDCD3F8D6
:1048B00000C065456ADB586AD3F81480D0F804E07C
:1048C0000A90D8699C6B4045B8BF404681469869BC
:1048D000CEF81040CEE900C2CEE9027181454C46C7
:1048E000A8BF0446A1EB02090B94A7EB0C0E09F13B
:1048F000010493F810A009940EF101040C94BAF18C
:10490000000F40F05B83A0EB080A0B9C0C9800FBA7
:1049100004F8186B98FBFAF8AEEB090E04FB0EFED8
:104920009EFBFAF908EB0C0AD0F80480099CD3E945
:104930000A03D0F804E05868A04BA3FB0443099C89
:10494000A1EB530102EB530302EB6402C8F804200D
:104950000CEB64024A44C8F800206210C8F8082032
:10496000CEE900C3CEE902A1C0E900A3C0E902710B
:104970000A9C269FA27A2B462AB1009732465946B6
:104980002046FFF771FFE469002CF3D11DB0BDE8AC
:10499000F08FD0F80480B8F1000FF7D0D8E901A962
:1049A000269BAAEB09029342F0DB26990AEB090346
:1049B0009942EBDCD8F8000009EB00018E428446F6
:1049C000E4DCA0EB09018D42E0DB052F00F0FE8264
:1049D0004FEA4901B9F1000FC1F10301D6DB0A9496
:1049E000CDF82CB00C46099519460027269B834626
:1049F00015460DE0A7EB090189000A3109F1FF39DD
:104A000001374F450C44C1DCAAEB09050AEB09014B
:104A10008B4200F00A82AB4200F02A820AEB0701C7
:104A20008B4200F0DF81AAEB07018B4200F0B781D7
:104A3000002CDFDAB9000631E2E7D0F80480B8F1E3
:104A4000000FA3D0D8F80490269B99459EDCD8F897
:104A50001430269A09939A4298DCD8F81020D8F896
:104A600008A0D8F800100A9252451346B8BF534622
:104A70008B42B8BF0B46B3420B910C9386DB524579
:104A80001346A8BF53468B42A8BF0B46AB420D93BB
:104A90003FF77CAF269AD8F80C3000920DF14F0208
:104AA000039214AA019215AA029200228DF84F20B7
:104AB000494652460B980E93FFF754F90DF14F03F8
:104AC0000393269B009302460E9B10925046B2F130
:104AD000000A18BF4FF0010A194614AB03EBCA03D2
:104AE00004330F93029314AB03EBCA030E930193A9
:104AF000DDE909324FEA4A0AFFF734F9002800F0ED
:104B000098820DF14F010AF1020A4FEA8A030391DC
:104B1000269900910DF1500C191D61446344CDE9B3
:104B20000131DDE90A0209994B46FFF71BF900281C
:104B300000F097820AF1020A149A5FFA8AFA114683
:104B40001CA8AAF1020300EB8A0A5AF8240C81423D
:104B5000B8BF01461CA800EB830050F8200C82422D
:104B6000A8BF024613F0FF0AEAD18D42A8BF0D4646
:104B7000DDE90C31A3EB010A099BB242A3EB090367
:104B8000B8BF3246012F0AF1010A03F1010304D034
:104B90009DF84F10002900F0C282D8F8181000923A
:104BA000CDE905310D9BCDE9039ACDE90153269B53
:104BB000324659462046FFF77BF9E7E6ABAAAAAA98
:104BC000D0F80480B8F1000F3FF4E0AED8F804301C
:104BD000269A9A42FFF6DAAED8F80C20269991422E
:104BE0003FF7D4AED8F8080086423FF7CFAED8F8EA
:104BF00000108D42FFF6CAAE8542A8BF05468E4220
:104C0000B446B8BF8C46032F00F06A81269F9F42AE
:104C100000F06681974200F063818E4240F3688223
:104C200085427FF4B3AE3246D8F81060269B20460A
:104C3000D8E900470696D8F80C600294F61B2C1BA6
:104C400001360134CDE90055594603970596049481
:104C5000FFF72EF99AE64768002F3FF497AEBB683E
:104C6000002B3FF493AED7F80C80B8F1000F3FF45F
:104C70008DAED7F80490269A4A45FFF687AE98F88D
:104C80000120269809924A449042BFF67FAE98F8D8
:104C900000A00AF1FF32D2100132042A0A923FF733
:104CA00075AE18460E933B680B93FBF791FA0B9B7E
:104CB00000FB0A3101398E4286463FF767AE9D42BE
:104CC0001846FFF663AE8D42A8BF0D46B342B8BF8B
:104CD00033467A690C95AB420F923FF757AE0546C3
:104CE000181A119090FBFAF086457FF74FAE491BDA
:104CF000269D0A9A0A97A5EB09050D954D1CD10032
:104D000001391095012505FA01F91D460E9B0999F7
:104D10000E9609941646119CCDF844B052469B4617
:104D2000F24634E098F809E09E4536D30D9FA3EB98
:104D30000C03DBB203FB017302FB1042D8F8040042
:104D400006FB03F3012E00EB030C00F0B480022EEF
:104D500000F03A81032E00F08681C3580A98007C47
:104D600008B143EA5303934013EA090F40F0A580CA
:104D70000C9B0135AB42FFF609AE98F800200134D8
:104D800094FBF2F082457FF701AE98F801101BF812
:104D9000003098F808C06345C4D20D9BCCE7ABEB5C
:104DA00009018E4240F3C280099A0BEB09018A4245
:104DB000FFF63EAED8E9025006906800CDE9040047
:104DC000D8F804002693401B0390D8F80000009107
:104DD000401BCDE901103246DDE90A01FFF768F812
:104DE000269B25E6ABEB09018E4240F38780099AAA
:104DF0000BEB09018A42FFF616AED8E90250069085
:104E00006800CDE90400D8F804002693401B039005
:104E1000D8F800000091401BCDE901103246DDE9D1
:104E20000A01FFF745F8269BFDE5ABEB07018E4233
:104E300040F39480099A0BEB07018A42FFF6EBAD31
:104E4000D8E9022006905000CDE90400D8F804000B
:104E50002693801A0390D8F800000091801ACDE9BB
:104E600001103246DDE90A01FFF722F8269BD2E560
:104E7000ABEB07018E4240F38980099A0BEB0701E7
:104E80008A42FFF6CBADD8E9025006906800CDE922
:104E90000400D8F804002693401B0390D8F80000C3
:104EA0000091401BCDE901103246DDE90A01FEF711
:104EB000FFFF269BB2E5C35C50E70F9B0693109B58
:104EC00004930A9B05915B6803930B9B0E9A1199BF
:104ED00009980095CDE90153269BFEF7E9FF47E7C6
:104EE000471AD21AD8F81000069001320137CDE9DE
:104EF0000213CDE900C50592049758E6D8E902509F
:104F000006906800CDE90400D8F804002693401B01
:104F10000390D8F800000091401BCDE90110324603
:104F2000DDE90A01FEF7C4FF269B60E7D8E90250DD
:104F300006906800CDE90400D8F804002693401BD1
:104F40000390D8F800000091401BCDE901103246D3
:104F5000DDE90A01FEF7ACFF269B25E7D8E9022030
:104F600006905000CDE90400D8F804002693801A7A
:104F70000390D8F800000091801ACDE90110324664
:104F8000DDE90A01FEF794FF269B53E7D8E90250BA
:104F900006906800CDE90400D8F804002693401B71
:104FA0000390D8F800000091401BCDE90110324673
:104FB000DDE90A01FEF77CFF269B5EE7BAF1010FEF
:104FC0005BD00A9C269FD5E4C35AC7E6269BA3EB79
:104FD0000A0A09FB09F30AFB1A3A07EE90AAF8EE4F
:104FE000E77AF5EEC07AF1EE10FA3FF5CFACB1EE0C
:104FF000E77AFDEEC77A204617EE904A6746A4444A
:105000006545A7EB0404D8F80C300693A8BF6546A5
:10501000B4424FEA4903B8BF3446CDE90212CDE9A4
:105020000433CDE90045269B59463246FEF740FF42
:10503000ACE40DF14F0303930F9B02930E9B01937E
:10504000269B0093DDE90A0209994B46FEF78AFE8A
:1050500000287FF46FAD109B002B3FF497AC4FF00E
:10506000020A149A6BE5C05C9CF802309CF801C0FF
:105070001B0443EA0C23034370E60B9CA9EB0E0EC2
:10508000A0EB0809099804FB0EFE00FB04F80C9C39
:105090009EFBF9F00990354898FBF9FE80FB040966
:1050A000186B04EBD4784068A9EBE479A7EB090A04
:1050B0000CEB68070760D3E90A37099C7F685B68D7
:1050C000E144A1EB680CA1EB0E0EACEB040C4FEA33
:1050D0006808C0F804C0C0F808800A9CC7E90092BC
:1050E000C7E902AEC3E9009EC3E902A1269F41E4DD
:1050F000471AD21AD8F81000CDF800C00132013793
:10510000CDE90520CDE90337CDE901C12046269B35
:1051100032465946FEF7CCFED8F8080080E5D8F8AC
:1051200018100D9F0092CDE90531CDE90127269B8E
:10513000324659462046CDE9039AFEF7B9FE20468D
:10514000D8F81840269B3246D8F804600694D8F860
:105150001440CDF810A0A41B0134CDE900555946E8
:10516000029703960594FEF7A3FE0FE45655555596
:1051700010B504460C2001F0E7FA00220470C0E9E3
:10518000012210BD642900D970472DE9F0478146FE
:1051900010200E4690469A4601F0D6FAD9F80840FB
:1051A00006700027C0F8048080F808A0C7602CB9FA
:1051B00016E011D8E56827465DB12C462178B1424A
:1051C000F7D184F808A0C4F80480BDE8F04701F0E6
:1051D000C3BAE060BDE8F087C4600FB1F860F9E7DA
:1051E000C9F80800BDE8F0874160704770B5044613
:1051F0000E460120242101F071FAA0B301230546D7
:1052000006708372072E2BD8DFE806F016161B1BDC
:10521000040420251021012001F060FA6860F8B133
:105220000023C5E907332CB12346E469002CFBD1E8
:105230002B62DD61284670BD1C21012001F04EFA71
:10524000ECE71421012001F049FAE7E718210120D9
:1052500001F044FAE2E73C21012001F03FFADDE7EA
:10526000284601F079FA0025284670BD0161704793
:10527000C16070470172704710B49942019C02DC12
:105280009C460B466146A24202DCA4461446624696
:105290004068C0E90034029B0361C0E902125DF876
:1052A000044B704740688360009BC360C0E90012F4
:1052B000704700BF10B44068019C80E81E009DF854
:1052C0000820039B02745DF8044B4361704700BFE4
:1052D000F8B5DDE90676BA420C9D02DC3C4617467D
:1052E0002246B34202DC34461E4623464468C4E9E3
:1052F0000223089BA363099B63610A9BA3610B9B29
:105300002174C4E907350321C4E900760020FFF7C2
:105310006DFF032160620546FFF768FF0321A0626D
:105320002846FFF763FF0521E0622846FFF75EFF8E
:10533000062120632846FFF759FF6063F8BD00BFD0
:105340002DE9F04F83B0DDE90CB55A451EDCA3EB27
:10535000010909F10109164682460F4698464FEAAF
:105360004909B0B1544694F80AC043463A46294622
:105370002046BCF1000F02D00096FFF775FAE469F1
:10538000002CF0D101365E454D44EBDD03B0BDE8A5
:10539000F08F0136B345F9DB0136B345F9DAF5E7AD
:1053A00010B40378062B0CD8DFE803F01E1E0E0E97
:1053B000040404004368D3E9004021441044C3E9D5
:1053C00000105DF8044B7047436898681C680C44F3
:1053D000014499605868D9681C60104411445DF814
:1053E000044B5860D960704743681C6898680C4447
:1053F00008441C601C69986058682144196184182D
:105400005969D8685C60104411445DF8044BD86059
:105410005961704750B138B50D46044620462946BB
:10542000FFF7BEFFE469002CF8D138BD704700BF1C
:105430002DE9F04383B00FFA81F917B200230C462F
:10544000154600933A46494605230646FCF718FFE1
:105450006B1D4FF47F086A1F1BB2009349464B46F1
:105460003046CDF8048012B2FCF728FD631D611FA1
:10547000CDF8048000971BB23A4609B23046FCF7DB
:105480001DFD03B0BDE8F0832DE9F84314460F6815
:105490005368D1F804C007FB03F223684FEAE77EA4
:1054A0000E46E1680EFB03220546A3FB0737A06802
:1054B0000CFB01F13A444FEAEC7707FB0017A0FB25
:1054C0000C011B18394442EB01022169D4E90C8913
:1054D000581861694B4642EB01014246FAF7D0FE8B
:1054E00028603068E1697668D4F820E000FB01F7B5
:1054F000616A424606FB01F8A1694FEAE07C0CFBB9
:105500000177A1FB00C10F44F11701FB0E80A16AD6
:10551000AEFB06E61CEB0E0C304447EB00071CEB21
:105520000100E16A4B4647EB0101FAF7A9FE68600A
:10553000BDE8F8832DE9F04FCA888B88CFB00546C7
:105540001791511F89B2ADF8DA10ADF8E210590881
:10555000053B9BB2ADF8DC30ADF8E0300123ADF88F
:10556000E410ADF8CC10ADF8D01085F82830A2F1D9
:10557000140105F11803520805204FF00514ADF889
:10558000E6201D93142205F130033594ADF8D800C0
:10559000ADF8DE00ADF8CE20ADF8D2103193149501
:1055A000DDF85C906FF07F414846FCF74FFC6FF0F0
:1055B0007F430293134B00930025FF232A4629467D
:1055C00001934846104B0395FDF7C0F84FF47A60FD
:1055D000FCF790F96FF07F414846FCF737FC0DF17E
:1055E000E808149CDDF874A0CDF8108035AF46466D
:1055F000B7F80080B7F802B041465A464846FFF770
:1056000017FF04E01C000020DC79000800BF94F8BC
:105610002930002BFAD094F8293023B100BF94F838
:105620002930002BFAD1236A032BEFD99AE8030023
:105630004EAB03EBC503283B83E80300C6E9008BB0
:105640006FF07F414846FCF701FC013540F21450F1
:10565000FCF750F9052D07F1040706F10806C7D13C
:105660000022CDE90D22CDE91122DDF8108014943D
:1056700007920DF5887C109214460F920A920C92B4
:1056800093460B9216460992049206921746964646
:105690000892914605921392DCE900230598119D2A
:1056A00002FB02F1081845EBE17105900898129D84
:1056B000119103FB03F1081845EBE1711291089079
:1056C00003FB02F113980B9DCF1940EBE17113918D
:1056D00004990698511840EBE270069009980491DD
:1056E0009E1940EBE3700990D8E9000100FB02FA33
:1056F0001AEB0B0B45EBEA750B950A9D00FB03FAC1
:105700001AEB05050A950C9D45EBEA750C950F9D66
:10571000041945EBE07001FB02F20F900D9812EBBB
:105720000E0E40EBE27201FB03F30D920E9A13EBA7
:10573000090942EBE3720E92079B109ACD180CF107
:10574000080C4EAB42EBE172634508F10808109279
:105750000795A1D13A466FF07F43069F0293CD4B48
:1057600000933B46CDE915B40599CDF860E0CB46F2
:10577000DDF84CE0DDF84890119D08980A9CB4468D
:1057800002FB03F31646049A119602FB0E3801FB46
:1057900009F300FB053A06FB0EF3099E1A9301FB81
:1057A00006F30CFB05313B4600FB03F31C9102FBA7
:1057B0000931119B20910B99159FCDF848C003FB2F
:1057C00006F30CFB0E3C00FB01F3CDF88CC00C99EA
:1057D00007FB093C119BCDF890C003FB01F304FBD0
:1057E0000E3C02FB01F30699CDF894C004FB013C8A
:1057F00012990B9BCDF884C001FB03F307FB063C19
:10580000CDF888C00C9B0599CDF84CB001FB03F393
:1058100004FB053C119C0B9BCDF898C004FB03F3E3
:1058200007FB0E3C0D9B0E9FCDF89CC000FB03F3C5
:105830001898199000FB093C3B4604FB03F3CDF894
:10584000ACC00BFB0E3C3B46069F0D9CCDF8B0C098
:1058500002FB03F30BFB073C129FCDF8A4C02346C9
:1058600007FB03F300FB063C0E9BCDF8A8C001FB31
:1058700003F30BFB053C2546119C049FCDF8B4C0F7
:1058800004FB05F300FB0E3CCDF8B8C0A4FB07EC0D
:10589000129C059FCDF86CE0C444CDF878C004FBA1
:1058A0000CFC0EFB06CB089E1798A7FB069E119ECC
:1058B0000022FF230392A6FB068C01931A9D764BD0
:1058C000B9EB08084646D6440CEB4508169D1A96D7
:1058D0006EEB080805FB08FC0F9D06FB05CC079D39
:1058E000CDF8A0C005FB08FC109D4FEA880A06FB16
:1058F00005CC4AEA967A4FEA86091C9ECDF8BCC0D0
:10590000A7FB04ECB444099E1B9DCDF87CC004FBAE
:105910000CFC0EFB06CCCDF848C01A9ECDF870E00A
:10592000A4FB05CE1CEB0C0CDE44049F4EEB0E0ECC
:1059300019EB0609089E48EB0A081CEB090C4EEB14
:10594000080EA6FB0789209E06EB090A069E07FBA8
:105950000AF908FB06991C9E5546A4FB06BA129E3E
:105960001294BCEB0B0CB2446EEB0A0EA7FB08AB17
:10597000BCEB0A0C149E119FD9446EEB090EC6E9CC
:1059800018CEA7FB04CE239FBCEB080C664607EBA2
:105990000E0C6CEB050C169D05FB0CFE0F9D37469F
:1059A00006FB05EB159E0B9D06FB0CFE07FB05EEAB
:1059B0003E46CDF880E0079F109D199C0B9607FB93
:1059C0000CFE06FB05EE0D9D089FCDF88CE004FB58
:1059D0000CFC159C06FB05CCCDF8C0C0A7FB04C889
:1059E000249C259D129EA044189CA7FB04AE2B9CD2
:1059F000119FCDF890A0A6440A9CCDF864E0A7FBC7
:105A0000049EBCEB090CAE4468EB0E0E4FEA8E0808
:105A10004FEA8C0919EB0C09049F48EA9C784EEB7D
:105A2000080CCDF834C0A7FB04EC219C04EB0C0A55
:105A3000159C7546A6FB04EC229C099ECDF888E0D7
:105A4000A4446746129C2195B5EB0E0C6AEB07083F
:105A50000CFB06FE04FB08EE0D9E0897ACFB04C889
:105A600019EB0C0CC644169C4EEB060E0B9EDDE9A2
:105A70001B57A4FB06891CEB08080BEB090C4CEB2D
:105A80000E0EB5EB070BDDE91E5765EB070C149DF9
:105A9000079F03E01C000020507A0008C5E90C8E27
:105AA0000F9D04FB0CFE0A9C0BFB05EE0C9DCDF834
:105AB00034E004FB0CFE0BFB05EE109D07FB0CF81D
:105AC000139F0BFB05880E9DCDF8308007FB0CFC67
:105AD000059F0BFB05CCCDF838C0269DA7FB048C99
